:100000000C9462000C948A000C948A000C948A0070
:100010000C948A000C948A000C948A000C948A0038
:100020000C948A000C948A000C948A000C948A0028
:100030000C948A000C948A000C948A000C948A0018
:100040000C9458040C948A000C948A000C948A0036
:100050000C948A000C948A000C948A000C948A00F8
:100060000C948A000C948A000000000024002700F1
:100070002A0000000000250028002B0000000000DE
:1000800023002600290004040404040404040202DA
:100090000202020203030303030301020408102007
:1000A0004080010204081020010204081020000012
:1000B0000008000201000003040700000000000027
:1000C00000003F0711241FBECFEFD8E0DEBFCDBF39
:1000D00011E0A0E0B1E0E0E2FFE002C005900D9287
:1000E000A234B107D9F721E0A2E4B1E001C01D922A
:1000F000AB37B207E1F710E0C2E6D0E004C02197C9
:10010000FE010E948807C136D107C9F70E94A204E8
:100110000C948E070C940000AF92BF92CF92DF92A6
:10012000EF92FF920F931F93CF93DF936C017B01AC
:100130008B01040F151FEB015E01AE18BF08C0173D
:10014000D10759F06991D601ED91FC910190F081B0
:10015000E02DC6010995892B79F7C501DF91CF9173
:100160001F910F91FF90EF90DF90CF90BF90AF90D5
:100170000895833081F028F4813099F08230A9F01D
:1001800008958730A9F08830C9F08430B1F48091A7
:1001900080008F7D03C0809180008F7780938000E6
:1001A000089584B58F7784BD089584B58F7DFBCF86
:1001B0008091B0008F778093B00008958091B00057
:1001C0008F7DF9CFCF93DF93282F30E0F901E255EF
:1001D000FF4F8491F901E656FF4FD491F901EA5798
:1001E000FF4FC491CC23A1F081110E94B900EC2FE4
:1001F000F0E0EE0FFF1FE458FF4FA591B491EC9192
:10020000ED2381E090E009F480E0DF91CF91089543
:1002100080E090E0FACF1F93CF93DF93282F30E058
:10022000F901E255FF4F8491F901E656FF4FD49151
:10023000F901EA57FF4FC491CC23A9F0162F811181
:100240000E94B900EC2FF0E0EE0FFF1FEE58FF4FB9
:10025000A591B4918FB7F894EC91111108C0D09585
:10026000DE23DC938FBFDF91CF911F910895DE2BAA
:10027000F8CFCF93DF9390E0FC01E656FF4F249137
:100280008A579F4FFC0184918823D1F090E0880F1A
:10029000991FFC01E859FF4FA591B491FC01EE585C
:1002A000FF4FC591D491623071F49FB7F8943C919F
:1002B000822F809583238C93E8812E2B28839FBFE8
:1002C000DF91CF9108958FB7F894EC912E2B2C935A
:1002D0008FBFF6CF3FB7F8948091490190914A01C2
:1002E000A0914B01B0914C0126B5A89B05C02F3FB2
:1002F00019F00196A11DB11D3FBFBA2FA92F982F4C
:100300008827BC01CD01620F711D811D911D42E046
:10031000660F771F881F991F4A95D1F708958F920E
:100320009F92AF92BF92CF92DF92EF92FF926B01BA
:100330007C010E946A014B015C01C114D104E104FB
:10034000F104B9F00E946A01681979098A099B09C8
:10035000683E73408105910580F321E0C21AD108FF
:10036000E108F10888EE880E83E0981EA11CB11CFC
:10037000E4CFFF90EF90DF90CF90BF90AF909F9031
:100380008F900895089590E080E008958F929F9255
:10039000AF92BF920F931F93CF93DF93CDB7DEB78A
:1003A000A1970FB6F894DEBF0FBECDBF19A24230A1
:1003B00008F44AE08E010F5D1F4F842E912CB12C62
:1003C000A12CA50194010E946607E62FB901CA017C
:1003D000EA3044F5E05DD801EE938D01232B242B08
:1003E000252B79F790E080E0109769F0FD010190EE
:1003F0000020E9F73197AF014A1B5B0BBD0183E693
:1004000091E00E948C00A1960FB6F894DEBF0FBE5B
:10041000CDBFDF91CF911F910F91BF90AF909F9073
:100420008F900895E95CD7CFFC0101900020E9F797
:100430003197AF01481B590BBC0183E691E00C9446
:100440008C00CF93DF93EC0160E08E810E940B0162
:1004500061E08E810E940B0160E08E810E940B01A1
:100460008BE891E00197F1F7DF91CF910895CF925A
:10047000DF92EF92FF920F931F93CF93DF936C0164
:100480007C0187E0E80EF11CD0E0C0E0062F10E010
:10049000B8010C2E02C0759567950A94E2F7617059
:1004A000F70181917F010E940B012196C430D10593
:1004B00079F7C601DF91CF911F910F91FF90EF90D7
:1004C000DF90CF900C942102CF92DF92EF92FF92B7
:1004D0000F931F93CF93DF93EC01F62E642F8C8143
:1004E0000E940B018D818F3F19F060E00E940B018B
:1004F0000F2D10E08F8584FF25C06E0187E0C80EA8
:10050000D11CF12CE12CB8010E2C02C07595679519
:100510000A94E2F76170F60181916F010E940B016C
:10052000FFEFEF1AFF0A88E0E816F10461F7CE0149
:10053000DF91CF911F910F91FF90EF90DF90CF90BF
:100540000C942102B80184E0759567958A95E1F7CE
:10055000CE010E9437026F2DCE01DF91CF911F9106
:100560000F91FF90EF90DF90CF900C94370240E016
:10057000682F83E691E00C946402CF93DF9382307E
:1005800029F49091720198609093720180937601A2
:100590001092770180E48093780180E18093790163
:1005A00080E580937A0161E0809167010E943901C2
:1005B000809168018F3F19F061E00E94390161E08C
:1005C000809169010E943901C3E6D1E09E01235662
:1005D00031408091720184FD0BC084E090E021964F
:1005E0002817390744F461E08E810E943901EECF6B
:1005F00088E090E0F4CF8BE39DE00197F1F760E0B5
:10060000809167010E940B0160E0809169010E9466
:100610000B01809168018F3F19F060E00E940B018F
:100620008091720184FD39C063E083E691E00E940D
:100630003702CBE4D6E4CE010197F1F763E083E61D
:1006400091E00E9437022197F1F763E083E691E0A1
:100650000E94370283E592E00197F1F762E083E6BA
:1006600091E00E9437028091720180620E94B7027D
:1006700084E0809373018CE00E94B70281E00E94C5
:10068000B7028BE39FE10197F1F782E08093740159
:1006900086E0DF91CF910C94B70280620E94B7028E
:1006A0008BE496E40197F1F78091720180620E94D9
:1006B000B70283E592E00197F1F7809172018062C1
:1006C0000E94B702D0CF643008F063E090917601C9
:1006D000691710F06FEF690FE62FF0E0ED59FE4F4C
:1006E0009489890F80680C94B70290915E01892FDC
:1006F000880F880F890F60E08D5F0E9463038EE38F
:1007000091E00E94140280915A0190915B01019640
:1007100090935B0180935A01089541E00E94640226
:1007200081E090E008950F931F93CF93DF938B01A7
:1007300028E0829FC001112480640E94B702E80172
:10074000085F1F4F699183E691E00E948D03C017F7
:10075000D107C1F7DF91CF911F910F91089590912B
:100760005E01892F880F880F890F90915C01891B8A
:1007700060915A018D5F0E94630361E083E691E01E
:100780000E948D0365E083E691E00E948D0362E0A4
:1007900083E691E00E948D0380E491E00C941402C2
:1007A00061E080E00E94630365E083E691E00E94DF
:1007B0008D0362E083E691E00E948D0380E491E086
:1007C0000E9414026091300170913101072E000CDB
:1007D000880B990B0E948F0161E080E00E94630307
:1007E00062E083E691E00E948D0380E491E00E9444
:1007F0001402609142017091430170933101609342
:100800003001072E000C880B990B0E948F0161E0CC
:1008100080E00E94630380E491E00E9414026091F2
:10082000300170913101072E000C880B990B0C944C
:100830008F01CF92DF92EF92FF926B017C0141E03A
:100840006DE283E691E00E94640266277727CB0180
:100850006C197D098E099F094AE00E94C601019624
:10086000FF90EF90DF90CF900895CF93DF93C091EA
:100870004D01D0914E018091600190916101C81BA2
:10088000D90BD0934E01C0934D0160E080E00E94EF
:100890006303BE01DD0F880B990B97FF04C0DF9146
:1008A000CF910C9419044AE0DF91CF910C94C601CA
:1008B0001F920F920FB60F9211242F933F938F9395
:1008C0009F93AF93BF938091450190914601A09172
:1008D0004701B09148013091440123E0230F2D37A7
:1008E00058F50196A11DB11D209344018093450147
:1008F00090934601A0934701B0934801809149012C
:1009000090914A01A0914B01B0914C010196A11D1B
:10091000B11D8093490190934A01A0934B01B0937C
:100920004C01BF91AF919F918F913F912F910F906B
:100930000FBE0F901F90189526E8230F0296A11D59
:10094000B11DD2CF789484B5826084BD84B58160B6
:1009500084BD85B5826085BD85B5816085BD80918A
:100960006E00816080936E00109281008091810002
:1009700082608093810080918100816080938100FA
:10098000809180008160809380008091B1008460BC
:100990008093B1008091B00081608093B00080911D
:1009A0007A00846080937A0080917A0082608093DC
:1009B0007A0080917A00816080937A0080917A0039
:1009C000806880937A001092C10082E00E94BD028C
:1009D00068E271E080E00E94930360E271E081E0F0
:1009E0000E94930368E171E082E00E94930360E15A
:1009F00071E083E00E94930368E071E086E00E946A
:100A0000930360E071E085E00E94930362E08CE074
:100A10000E94390162E089E00E94390162E088E0C9
:100A20000E94390162E087E00E94390160E082E0C3
:100A30000E94630360E083E691E00E948D0360E022
:100A400087E00E94630363E083E691E00E948D03E8
:100A500060E08CE00E94630366E083E691E00E9420
:100A60008D03D1E085E0782E90E0C92E90E0D92E5C
:100A7000C1E023E0A22EB12C02E010E0EE24E394CA
:100A8000F12C8CE00E94E200892BB1F480914D01A1
:100A900090914E01893091057CF4019690934E011E
:100AA00080934D016091300170913101072E000C4F
:100AB000880B990B0E948F0160E080E00E94630325
:100AC00060914D0170914E01072E000C880B990B1F
:100AD00097FFC5C00E94190489E00E94E200892B9B
:100AE00009F0C1C010925001C093510160913001D2
:100AF00070913101072E000C880B990B0E948F0119
:100B0000F0926101E092600120914D0130914E011F
:100B10008091600190916101281739070CF4D8C0C9
:100B2000C0934F0150914F0120E0552339F020919F
:100B30005001222319F0209152012D2720935701B3
:100B4000C093560180915101552329F040915501E0
:100B50004D27811101C040E040935401C0935301DF
:100B6000882309F4B8C0909150019111B4C09091BC
:100B700052019111B0C030915501311101C0952F32
:100B8000909362018111A9C030915001332349F043
:100B9000309152013111A1C060915501611101C024
:100BA000352F30935901882369F0809150018823B3
:100BB00049F080915201811192C03091550131115B
:100BC00001C0852F8093580141114DC110925201EF
:100BD00021114FC110925501992309F4C8C00E94F8
:100BE0003504109261011092600110925F01109221
:100BF0005E010E94750310925D0110925C012091CC
:100C00005E0130915F01729EC001739E900D1124B0
:100C1000039620915C0130915D01821793070CF4DB
:100C200060C00E94AF038090300190903101B40108
:100C3000092C000C880B990B0E948F0182E1881A05
:100C40009108909231018092300180915C019091E5
:100C50005D01019690935D0180935C01D0CF4AE0E5
:100C60000E94C60139CF88E00E94E200892B99F4E6
:100C7000C093500110925101609130017091310187
:100C8000072E000C880B990B0E948F0110936101B5
:100C90000093600139CF87E00E94E200892B99F42C
:100CA000C0935001C09351016091300170913101A6
:100CB000072E000C880B990B0E948F01B0926101E6
:100CC000A092600121CF10925001109251011CCFCF
:100CD00010924F0127CF90E053CF30E062CF80E0F9
:100CE00071CF0E94D00380915901882309F494C0E8
:100CF0000E9435041092610110926001F0925F0130
:100D0000E0925E010E94750310925D0110925C01F9
:100D100020915E0130915F01729EC001739E900D23
:100D20001124039620915C0130915D018217930795
:100D30006CF10E94AF038090300190903101B401BA
:100D4000092C000C880B990B0E948F0182E1881AF4
:100D50009108909231018092300180915C019091D4
:100D60005D01019690935D0180935C01D1CF10925B
:100D70005F0110925E0110925B0110925A01109275
:100D80005D0110925C010E94AF03ADCF0E94D003C1
:100D900080915801882309F457C00E9435041092AD
:100DA00061011092600110935F0100935E010E9447
:100DB000750310925D0110925C0120915E013091EB
:100DC0005F01729EC001739E900D112403962091C5
:100DD0005C0130915D01821793076CF10E94AF03B3
:100DE0008090300190903101B401092C000C880BE7
:100DF000990B0E948F0182E1881A9108909231012B
:100E00008092300180915C0190915D0101969093F8
:100E10005D0180935C01D1CFF0925F01E0925E01B1
:100E200010925B0110925A0110925D0110925C01C8
:100E30000E94AF03ADCF0E94D003C114D10409F4C6
:100E400020CE0E9400001DCE10935F0100935E0132
:100E500010925B0110925A0110925D0110925C0198
:100E60000E94AF03EACF809152018D2780935201F7
:100E7000AFCE809155018D2780935501ADCEE3E62D
:100E8000F1E01382128286E391E0918380838DE00A
:100E900084838FEF85838AE0868386E0878385E07D
:100EA000808784E0818783E0828713861486158695
:100EB0001686178681E00E94BD02809130019091D4
:100EC000310190934301809342010895A1E21A2ECB
:100ED000AA1BBB1BFD010DC0AA1FBB1FEE1FFF1FDE
:100EE000A217B307E407F50720F0A21BB30BE40B2E
:100EF000F50B661F771F881F991F1A9469F7609575
:100F00007095809590959B01AC01BD01CF0108952E
:100F1000EE0FFF1F0590F491E02D0994F894FFCF98
:100F2000001F1F1F1F1F1F001F1F0A0A0A151F1F58
:100F30001F1F060A0A0C1F1F0000101C1C100000B7
:100F4000000F1F1F1F1F0F001F1F0D00000F1F1F6F
:100F50002301000000008D038C00C301C20120208A
:020F600020006F
:00000001FF
